{
  "_format": "hh-sol-artifact-1",
  "contractName": "DistributionCaller",
  "sourceName": "solidity/precompiles/testutil/contracts/DistributionCaller.sol",
  "abi": [
    {
      "inputs": [],
      "name": "counter",
      "outputs": [
        {
          "internalType": "int64",
          "name": "",
          "type": "int64"
        }
      ],
      "stateMutability": "view",
      "type": "function"
    },
    {
      "inputs": [
        {
          "internalType": "address",
          "name": "_delAddr",
          "type": "address"
        },
        {
          "internalType": "string",
          "name": "_withdrawAddr",
          "type": "string"
        }
      ],
      "name": "delegateCallSetWithdrawAddress",
      "outputs": [],
      "stateMutability": "nonpayable",
      "type": "function"
    },
    {
      "inputs": [],
      "name": "deposit",
      "outputs": [],
      "stateMutability": "payable",
      "type": "function"
    },
    {
      "inputs": [
        {
          "internalType": "address",
          "name": "_delAddr",
          "type": "address"
        },
        {
          "internalType": "string",
          "name": "_valAddr",
          "type": "string"
        }
      ],
      "name": "getDelegationRewards",
      "outputs": [
        {
          "components": [
            {
              "internalType": "string",
              "name": "denom",
              "type": "string"
            },
            {
              "internalType": "uint256",
              "name": "amount",
              "type": "uint256"
            },
            {
              "internalType": "uint8",
              "name": "precision",
              "type": "uint8"
            }
          ],
          "internalType": "struct DecCoin[]",
          "name": "",
          "type": "tuple[]"
        }
      ],
      "stateMutability": "view",
      "type": "function"
    },
    {
      "inputs": [
        {
          "internalType": "address",
          "name": "_delAddr",
          "type": "address"
        }
      ],
      "name": "getDelegationTotalRewards",
      "outputs": [
        {
          "components": [
            {
              "internalType": "string",
              "name": "validatorAddress",
              "type": "string"
            },
            {
              "components": [
                {
                  "internalType": "string",
                  "name": "denom",
                  "type": "string"
                },
                {
                  "internalType": "uint256",
                  "name": "amount",
                  "type": "uint256"
                },
                {
                  "internalType": "uint8",
                  "name": "precision",
                  "type": "uint8"
                }
              ],
              "internalType": "struct DecCoin[]",
              "name": "reward",
              "type": "tuple[]"
            }
          ],
          "internalType": "struct DelegationDelegatorReward[]",
          "name": "rewards",
          "type": "tuple[]"
        },
        {
          "components": [
            {
              "internalType": "string",
              "name": "denom",
              "type": "string"
            },
            {
              "internalType": "uint256",
              "name": "amount",
              "type": "uint256"
            },
            {
              "internalType": "uint8",
              "name": "precision",
              "type": "uint8"
            }
          ],
          "internalType": "struct DecCoin[]",
          "name": "total",
          "type": "tuple[]"
        }
      ],
      "stateMutability": "view",
      "type": "function"
    },
    {
      "inputs": [
        {
          "internalType": "address",
          "name": "_delAddr",
          "type": "address"
        }
      ],
      "name": "getDelegatorValidators",
      "outputs": [
        {
          "internalType": "string[]",
          "name": "",
          "type": "string[]"
        }
      ],
      "stateMutability": "view",
      "type": "function"
    },
    {
      "inputs": [
        {
          "internalType": "address",
          "name": "_delAddr",
          "type": "address"
        }
      ],
      "name": "getDelegatorWithdrawAddress",
      "outputs": [
        {
          "internalType": "string",
          "name": "",
          "type": "string"
        }
      ],
      "stateMutability": "view",
      "type": "function"
    },
    {
      "inputs": [
        {
          "internalType": "string",
          "name": "_valAddr",
          "type": "string"
        }
      ],
      "name": "getValidatorCommission",
      "outputs": [
        {
          "components": [
            {
              "internalType": "string",
              "name": "denom",
              "type": "string"
            },
            {
              "internalType": "uint256",
              "name": "amount",
              "type": "uint256"
            },
            {
              "internalType": "uint8",
              "name": "precision",
              "type": "uint8"
            }
          ],
          "internalType": "struct DecCoin[]",
          "name": "",
          "type": "tuple[]"
        }
      ],
      "stateMutability": "view",
      "type": "function"
    },
    {
      "inputs": [
        {
          "internalType": "string",
          "name": "_valAddr",
          "type": "string"
        }
      ],
      "name": "getValidatorDistributionInfo",
      "outputs": [
        {
          "components": [
            {
              "internalType": "string",
              "name": "operatorAddress",
              "type": "string"
            },
            {
              "components": [
                {
                  "internalType": "string",
                  "name": "denom",
                  "type": "string"
                },
                {
                  "internalType": "uint256",
                  "name": "amount",
                  "type": "uint256"
                },
                {
                  "internalType": "uint8",
                  "name": "precision",
                  "type": "uint8"
                }
              ],
              "internalType": "struct DecCoin[]",
              "name": "selfBondRewards",
              "type": "tuple[]"
            },
            {
              "components": [
                {
                  "internalType": "string",
                  "name": "denom",
                  "type": "string"
                },
                {
                  "internalType": "uint256",
                  "name": "amount",
                  "type": "uint256"
                },
                {
                  "internalType": "uint8",
                  "name": "precision",
                  "type": "uint8"
                }
              ],
              "internalType": "struct DecCoin[]",
              "name": "commission",
              "type": "tuple[]"
            }
          ],
          "internalType": "struct ValidatorDistributionInfo",
          "name": "",
          "type": "tuple"
        }
      ],
      "stateMutability": "view",
      "type": "function"
    },
    {
      "inputs": [
        {
          "internalType": "string",
          "name": "_valAddr",
          "type": "string"
        }
      ],
      "name": "getValidatorOutstandingRewards",
      "outputs": [
        {
          "components": [
            {
              "internalType": "string",
              "name": "denom",
              "type": "string"
            },
            {
              "internalType": "uint256",
              "name": "amount",
              "type": "uint256"
            },
            {
              "internalType": "uint8",
              "name": "precision",
              "type": "uint8"
            }
          ],
          "internalType": "struct DecCoin[]",
          "name": "",
          "type": "tuple[]"
        }
      ],
      "stateMutability": "view",
      "type": "function"
    },
    {
      "inputs": [
        {
          "internalType": "string",
          "name": "_valAddr",
          "type": "string"
        },
        {
          "internalType": "uint64",
          "name": "_startingHeight",
          "type": "uint64"
        },
        {
          "internalType": "uint64",
          "name": "_endingHeight",
          "type": "uint64"
        },
        {
          "components": [
            {
              "internalType": "bytes",
              "name": "key",
              "type": "bytes"
            },
            {
              "internalType": "uint64",
              "name": "offset",
              "type": "uint64"
            },
            {
              "internalType": "uint64",
              "name": "limit",
              "type": "uint64"
            },
            {
              "internalType": "bool",
              "name": "countTotal",
              "type": "bool"
            },
            {
              "internalType": "bool",
              "name": "reverse",
              "type": "bool"
            }
          ],
          "internalType": "struct PageRequest",
          "name": "pageRequest",
          "type": "tuple"
        }
      ],
      "name": "getValidatorSlashes",
      "outputs": [
        {
          "components": [
            {
              "internalType": "uint64",
              "name": "validatorPeriod",
              "type": "uint64"
            },
            {
              "components": [
                {
                  "internalType": "uint256",
                  "name": "value",
                  "type": "uint256"
                },
                {
                  "internalType": "uint8",
                  "name": "precision",
                  "type": "uint8"
                }
              ],
              "internalType": "struct Dec",
              "name": "fraction",
              "type": "tuple"
            }
          ],
          "internalType": "struct ValidatorSlashEvent[]",
          "name": "",
          "type": "tuple[]"
        },
        {
          "components": [
            {
              "internalType": "bytes",
              "name": "nextKey",
              "type": "bytes"
            },
            {
              "internalType": "uint64",
              "name": "total",
              "type": "uint64"
            }
          ],
          "internalType": "struct PageResponse",
          "name": "",
          "type": "tuple"
        }
      ],
      "stateMutability": "view",
      "type": "function"
    },
    {
      "inputs": [
        {
          "internalType": "address payable",
          "name": "_delAddr",
          "type": "address"
        },
        {
          "internalType": "address payable",
          "name": "_withdrawer",
          "type": "address"
        },
        {
          "internalType": "string",
          "name": "_valAddr",
          "type": "string"
        },
        {
          "internalType": "bool",
          "name": "_after",
          "type": "bool"
        }
      ],
      "name": "revertWithdrawRewardsAndTransfer",
      "outputs": [],
      "stateMutability": "nonpayable",
      "type": "function"
    },
    {
      "inputs": [
        {
          "internalType": "address",
          "name": "_delAddr",
          "type": "address"
        }
      ],
      "name": "staticCallGetWithdrawAddress",
      "outputs": [
        {
          "internalType": "bytes",
          "name": "",
          "type": "bytes"
        }
      ],
      "stateMutability": "view",
      "type": "function"
    },
    {
      "inputs": [
        {
          "internalType": "address",
          "name": "_delAddr",
          "type": "address"
        },
        {
          "internalType": "string",
          "name": "_withdrawAddr",
          "type": "string"
        }
      ],
      "name": "staticCallSetWithdrawAddress",
      "outputs": [],
      "stateMutability": "view",
      "type": "function"
    },
    {
      "inputs": [
        {
          "internalType": "address",
          "name": "_delAddr",
          "type": "address"
        },
        {
          "internalType": "uint32",
          "name": "_maxRetrieve",
          "type": "uint32"
        }
      ],
      "name": "testClaimRewards",
      "outputs": [
        {
          "internalType": "bool",
          "name": "success",
          "type": "bool"
        }
      ],
      "stateMutability": "nonpayable",
      "type": "function"
    },
    {
      "inputs": [
        {
          "internalType": "address payable",
          "name": "_delAddr",
          "type": "address"
        },
        {
          "internalType": "uint32",
          "name": "_maxRetrieve",
          "type": "uint32"
        },
        {
          "internalType": "bool",
          "name": "_before",
          "type": "bool"
        },
        {
          "internalType": "bool",
          "name": "_after",
          "type": "bool"
        }
      ],
      "name": "testClaimRewardsWithTransfer",
      "outputs": [],
      "stateMutability": "nonpayable",
      "type": "function"
    },
    {
      "inputs": [
        {
          "internalType": "string",
          "name": "_validatorAddr",
          "type": "string"
        },
        {
          "internalType": "uint256",
          "name": "_amount",
          "type": "uint256"
        }
      ],
      "name": "testDelegateFromContract",
      "outputs": [],
      "stateMutability": "nonpayable",
      "type": "function"
    },
    {
      "inputs": [
        {
          "internalType": "address",
          "name": "depositor",
          "type": "address"
        },
        {
          "internalType": "uint256",
          "name": "amount",
          "type": "uint256"
        }
      ],
      "name": "testFundCommunityPool",
      "outputs": [
        {
          "internalType": "bool",
          "name": "success",
          "type": "bool"
        }
      ],
      "stateMutability": "nonpayable",
      "type": "function"
    },
    {
      "inputs": [
        {
          "internalType": "address payable",
          "name": "depositor",
          "type": "address"
        },
        {
          "internalType": "uint256",
          "name": "amount",
          "type": "uint256"
        },
        {
          "internalType": "bool",
          "name": "_before",
          "type": "bool"
        },
        {
          "internalType": "bool",
          "name": "_after",
          "type": "bool"
        }
      ],
      "name": "testFundCommunityPoolWithTransfer",
      "outputs": [],
      "stateMutability": "nonpayable",
      "type": "function"
    },
    {
      "inputs": [
        {
          "internalType": "string",
          "name": "_withdrawAddr",
          "type": "string"
        },
        {
          "internalType": "address",
          "name": "_delAddr",
          "type": "address"
        },
        {
          "internalType": "string",
          "name": "_valAddr",
          "type": "string"
        }
      ],
      "name": "testRevertState",
      "outputs": [
        {
          "components": [
            {
              "internalType": "string",
              "name": "denom",
              "type": "string"
            },
            {
              "internalType": "uint256",
              "name": "amount",
              "type": "uint256"
            }
          ],
          "internalType": "struct Coin[]",
          "name": "",
          "type": "tuple[]"
        }
      ],
      "stateMutability": "nonpayable",
      "type": "function"
    },
    {
      "inputs": [
        {
          "internalType": "address",
          "name": "_delAddr",
          "type": "address"
        },
        {
          "internalType": "string",
          "name": "_withdrawAddr",
          "type": "string"
        }
      ],
      "name": "testSetWithdrawAddress",
      "outputs": [
        {
          "internalType": "bool",
          "name": "",
          "type": "bool"
        }
      ],
      "stateMutability": "nonpayable",
      "type": "function"
    },
    {
      "inputs": [
        {
          "internalType": "string",
          "name": "_withdrawAddr",
          "type": "string"
        }
      ],
      "name": "testSetWithdrawAddressFromContract",
      "outputs": [
        {
          "internalType": "bool",
          "name": "",
          "type": "bool"
        }
      ],
      "stateMutability": "nonpayable",
      "type": "function"
    },
    {
      "inputs": [
        {
          "internalType": "address",
          "name": "delegatorAddress",
          "type": "address"
        },
        {
          "internalType": "uint32",
          "name": "maxRetrieve",
          "type": "uint32"
        }
      ],
      "name": "testTryClaimRewards",
      "outputs": [
        {
          "internalType": "bool",
          "name": "",
          "type": "bool"
        }
      ],
      "stateMutability": "nonpayable",
      "type": "function"
    },
    {
      "inputs": [
        {
          "internalType": "address",
          "name": "_delAddr",
          "type": "address"
        },
        {
          "internalType": "string",
          "name": "_valAddr",
          "type": "string"
        }
      ],
      "name": "testWithdrawDelegatorRewards",
      "outputs": [
        {
          "components": [
            {
              "internalType": "string",
              "name": "denom",
              "type": "string"
            },
            {
              "internalType": "uint256",
              "name": "amount",
              "type": "uint256"
            }
          ],
          "internalType": "struct Coin[]",
          "name": "",
          "type": "tuple[]"
        }
      ],
      "stateMutability": "nonpayable",
      "type": "function"
    },
    {
      "inputs": [
        {
          "internalType": "string",
          "name": "_valAddr",
          "type": "string"
        }
      ],
      "name": "testWithdrawDelegatorRewardsFromContract",
      "outputs": [
        {
          "components": [
            {
              "internalType": "string",
              "name": "denom",
              "type": "string"
            },
            {
              "internalType": "uint256",
              "name": "amount",
              "type": "uint256"
            }
          ],
          "internalType": "struct Coin[]",
          "name": "",
          "type": "tuple[]"
        }
      ],
      "stateMutability": "nonpayable",
      "type": "function"
    },
    {
      "inputs": [
        {
          "internalType": "address payable",
          "name": "_delAddr",
          "type": "address"
        },
        {
          "internalType": "string",
          "name": "_valAddr",
          "type": "string"
        },
        {
          "internalType": "bool",
          "name": "_before",
          "type": "bool"
        },
        {
          "internalType": "bool",
          "name": "_after",
          "type": "bool"
        }
      ],
      "name": "testWithdrawDelegatorRewardsWithTransfer",
      "outputs": [
        {
          "components": [
            {
              "internalType": "string",
              "name": "denom",
              "type": "string"
            },
            {
              "internalType": "uint256",
              "name": "amount",
              "type": "uint256"
            }
          ],
          "internalType": "struct Coin[]",
          "name": "coins",
          "type": "tuple[]"
        }
      ],
      "stateMutability": "nonpayable",
      "type": "function"
    },
    {
      "inputs": [
        {
          "internalType": "string",
          "name": "_valAddr",
          "type": "string"
        }
      ],
      "name": "testWithdrawValidatorCommission",
      "outputs": [
        {
          "components": [
            {
              "internalType": "string",
              "name": "denom",
              "type": "string"
            },
            {
              "internalType": "uint256",
              "name": "amount",
              "type": "uint256"
            }
          ],
          "internalType": "struct Coin[]",
          "name": "",
          "type": "tuple[]"
        }
      ],
      "stateMutability": "nonpayable",
      "type": "function"
    },
    {
      "inputs": [
        {
          "internalType": "string",
          "name": "_valAddr",
          "type": "string"
        },
        {
          "internalType": "address payable",
          "name": "_withdrawer",
          "type": "address"
        },
        {
          "internalType": "bool",
          "name": "_before",
          "type": "bool"
        },
        {
          "internalType": "bool",
          "name": "_after",
          "type": "bool"
        }
      ],
      "name": "testWithdrawValidatorCommissionWithTransfer",
      "outputs": [
        {
          "components": [
            {
              "internalType": "string",
              "name": "denom",
              "type": "string"
            },
            {
              "internalType": "uint256",
              "name": "amount",
              "type": "uint256"
            }
          ],
          "internalType": "struct Coin[]",
          "name": "coins",
          "type": "tuple[]"
        }
      ],
      "stateMutability": "nonpayable",
      "type": "function"
    },
    {
      "inputs": [
        {
          "internalType": "address",
          "name": "_delAddr",
          "type": "address"
        },
        {
          "internalType": "string",
          "name": "_valAddr",
          "type": "string"
        }
      ],
      "name": "withdrawDelegatorRewardsAndRevert",
      "outputs": [
        {
          "components": [
            {
              "internalType": "string",
              "name": "denom",
              "type": "string"
            },
            {
              "internalType": "uint256",
              "name": "amount",
              "type": "uint256"
            }
          ],
          "internalType": "struct Coin[]",
          "name": "coins",
          "type": "tuple[]"
        }
      ],
      "stateMutability": "nonpayable",
      "type": "function"
    }
  ],
  "bytecode": "0x60806040526040518060200160405280604051806060016040528060238152602001620051c26023913981525060009060016200003e92919062000053565b503480156200004c57600080fd5b50620004a1565b828054828255906000526020600020908101928215620000a0579160200282015b828111156200009f5782518290816200008e9190620003ba565b509160200191906001019062000074565b5b509050620000af9190620000b3565b5090565b5b80821115620000d75760008181620000cd9190620000db565b50600101620000b4565b5090565b508054620000e990620001a9565b6000825580601f10620000fd57506200011e565b601f0160209004906000526020600020908101906200011d919062000121565b5b50565b5b808211156200013c57600081600090555060010162000122565b5090565b600081519050919050565b7f4e487b7100000000000000000000000000000000000000000000000000000000600052604160045260246000fd5b7f4e487b7100000000000000000000000000000000000000000000000000000000600052602260045260246000fd5b60006002820490506001821680620001c257607f821691505b602082108103620001d857620001d76200017a565b5b50919050565b60008190508160005260206000209050919050565b60006020601f8301049050919050565b600082821b905092915050565b600060088302620002427fffffffffffffffffffffffffffffffffffffffffffffffffffffffffffffffff8262000203565b6200024e868362000203565b95508019841693508086168417925050509392505050565b6000819050919050565b6000819050919050565b60006200029b620002956200028f8462000266565b62000270565b62000266565b9050919050565b6000819050919050565b620002b7836200027a565b620002cf620002c682620002a2565b84845462000210565b825550505050565b600090565b620002e6620002d7565b620002f3818484620002ac565b505050565b5b818110156200031b576200030f600082620002dc565b600181019050620002f9565b5050565b601f8211156200036a576200033481620001de565b6200033f84620001f3565b810160208510156200034f578190505b620003676200035e85620001f3565b830182620002f8565b50505b505050565b600082821c905092915050565b60006200038f600019846008026200036f565b1980831691505092915050565b6000620003aa83836200037c565b9150826002028217905092915050565b620003c58262000140565b67ffffffffffffffff811115620003e157620003e06200014b565b5b620003ed8254620001a9565b620003fa8282856200031f565b600060209050601f8311600181146200043257600084156200041d578287015190505b6200042985826200039c565b86555062000499565b601f1984166200044286620001de565b60005b828110156200046c5784890151825560018201915060208501945060208101905062000445565b868310156200048c578489015162000488601f8916826200037c565b8355505b6001600288020188555050505b505050505050565b614d1180620004b16000396000f3fe6080604052600436106101c25760003560e01c806388b2d581116100f7578063b6a216ae11610095578063d3f831be11610064578063d3f831be14610714578063dd987c2014610751578063e0421e391461077a578063e236c7a6146107b7576101c2565b8063b6a216ae14610653578063c7804bb514610690578063cb85aa0a146106cd578063d0e30db01461070a576101c2565b806398194593116100d1578063981945931461055f578063ad5c4cdd1461059c578063adb23785146105d9578063b2d1788314610616576101c2565b806388b2d581146104a757806393574cd1146104e5578063963516e414610522576101c2565b8063613d4de8116101645780636f669da41161013e5780636f669da4146103c757806378a5dfd114610404578063796b96d2146104415780637c9db0bb1461046a576101c2565b8063613d4de81461033657806361bc221a146103735780636cc9ac8a1461039e576101c2565b80631b050207116101a05780631b0502071461026a578063296c60aa146102935780632d0ee16a146102bc57806346e16d34146102f9576101c2565b80630183e4b4146101c757806301b68000146101f05780630c05e9e41461022d575b600080fd5b3480156101d357600080fd5b506101ee60048036038101906101e9919061265c565b6107f5565b005b3480156101fc57600080fd5b5061021760048036038101906102129190612701565b610b24565b60405161022491906127be565b60405180910390f35b34801561023957600080fd5b50610254600480360381019061024f9190612915565b610c6c565b6040516102619190612b58565b60405180910390f35b34801561027657600080fd5b50610291600480360381019061028c9190612b7a565b610cfc565b005b34801561029f57600080fd5b506102ba60048036038101906102b59190612bfd565b610e83565b005b3480156102c857600080fd5b506102e360048036038101906102de9190612915565b610fc4565b6040516102f09190612d58565b60405180910390f35b34801561030557600080fd5b50610320600480360381019061031b9190612bfd565b611052565b60405161032d9190612d89565b60405180910390f35b34801561034257600080fd5b5061035d60048036038101906103589190612da4565b6110dc565b60405161036a9190612d58565b60405180910390f35b34801561037f57600080fd5b506103886113cf565b6040516103959190612e43565b60405180910390f35b3480156103aa57600080fd5b506103c560048036038101906103c09190612e8a565b6113e2565b005b3480156103d357600080fd5b506103ee60048036038101906103e99190612ef1565b611673565b6040516103fb9190612d89565b60405180910390f35b34801561041057600080fd5b5061042b60048036038101906104269190612bfd565b6116fd565b6040516104389190612fb7565b60405180910390f35b34801561044d57600080fd5b5061046860048036038101906104639190612bfd565b61178a565b005b34801561047657600080fd5b50610491600480360381019061048c9190612915565b6118cb565b60405161049e9190612fb7565b60405180910390f35b3480156104b357600080fd5b506104ce60048036038101906104c9919061303d565b611955565b6040516104dc92919061327f565b60405180910390f35b3480156104f157600080fd5b5061050c60048036038101906105079190612ef1565b6119f3565b6040516105199190612d89565b60405180910390f35b34801561052e57600080fd5b5061054960048036038101906105449190612915565b611a8b565b6040516105569190612d89565b60405180910390f35b34801561056b57600080fd5b5061058660048036038101906105819190612bfd565b611b14565b6040516105939190612d58565b60405180910390f35b3480156105a857600080fd5b506105c360048036038101906105be9190612bfd565b611ba3565b6040516105d09190612d58565b60405180910390f35b3480156105e557600080fd5b5061060060048036038101906105fb91906132b6565b611c2f565b60405161060d9190612d58565b60405180910390f35b34801561062257600080fd5b5061063d60048036038101906106389190613339565b611ebc565b60405161064a9190612d58565b60405180910390f35b34801561065f57600080fd5b5061067a60048036038101906106759190612701565b612011565b6040516106879190613486565b60405180910390f35b34801561069c57600080fd5b506106b760048036038101906106b291906134a8565b61209b565b6040516106c49190612d89565b60405180910390f35b3480156106d957600080fd5b506106f460048036038101906106ef9190612701565b6121b3565b6040516107019190613532565b60405180910390f35b61071261223d565b005b34801561072057600080fd5b5061073b60048036038101906107369190612915565b61223f565b6040516107489190612fb7565b60405180910390f35b34801561075d57600080fd5b5061077860048036038101906107739190613554565b6122c9565b005b34801561078657600080fd5b506107a1600480360381019061079c9190612915565b612418565b6040516107ae9190612d58565b60405180910390f35b3480156107c357600080fd5b506107de60048036038101906107d99190612701565b6124a4565b6040516107ec9291906136b6565b60405180910390f35b8115610927576001600081819054906101000a900460070b8092919061081a9061371c565b91906101000a81548167ffffffffffffffff021916908360070b67ffffffffffffffff160217905550503073ffffffffffffffffffffffffffffffffffffffff168473ffffffffffffffffffffffffffffffffffffffff16146109265760008473ffffffffffffffffffffffffffffffffffffffff16600f60405161089e9061377d565b60006040518083038185875af1925050503d80600081146108db576040519150601f19603f3d011682016040523d82523d6000602084013e6108e0565b606091505b5050905080610924576040517f08c379a000000000000000000000000000000000000000000000000000000000815260040161091b90613804565b60405180910390fd5b505b5b600061080173ffffffffffffffffffffffffffffffffffffffff16632efe8a5f86866040518363ffffffff1660e01b8152600401610966929190613892565b6020604051808303816000875af1158015610985573d6000803e3d6000fd5b505050506040513d601f19601f820116820180604052508101906109a991906138d0565b9050806109eb576040517f08c379a00000000000000000000000000000000000000000000000000000000081526004016109e290613949565b60405180910390fd5b8115610b1d576001600081819054906101000a900460070b80929190610a109061371c565b91906101000a81548167ffffffffffffffff021916908360070b67ffffffffffffffff160217905550503073ffffffffffffffffffffffffffffffffffffffff168573ffffffffffffffffffffffffffffffffffffffff1614610b1c5760008573ffffffffffffffffffffffffffffffffffffffff16600f604051610a949061377d565b60006040518083038185875af1925050503d8060008114610ad1576040519150601f19603f3d011682016040523d82523d6000602084013e610ad6565b606091505b5050905080610b1a576040517f08c379a0000000000000000000000000000000000000000000000000000000008152600401610b1190613804565b60405180910390fd5b505b5b5050505050565b606060008061080173ffffffffffffffffffffffffffffffffffffffff1684604051602401610b539190613978565b6040516020818303038152906040527f5431f450000000000000000000000000000000000000000000000000000000007bffffffffffffffffffffffffffffffffffffffffffffffffffffffff19166020820180517bffffffffffffffffffffffffffffffffffffffffffffffffffffffff8381831617835250505050604051610bdd91906139c4565b600060405180830381855afa9150503d8060008114610c18576040519150601f19603f3d011682016040523d82523d6000602084013e610c1d565b606091505b509150915081610c62576040517f08c379a0000000000000000000000000000000000000000000000000000000008152600401610c5990613a27565b60405180910390fd5b8092505050919050565b610c74612531565b61080173ffffffffffffffffffffffffffffffffffffffff166354212a89836040518263ffffffff1660e01b8152600401610caf9190613532565b600060405180830381865afa158015610ccc573d6000803e3d6000fd5b505050506040513d6000823e3d601f19601f82011682018060405250810190610cf59190613d20565b9050919050565b3073ffffffffffffffffffffffffffffffffffffffff1663ad5c4cdd85846040518363ffffffff1660e01b8152600401610d37929190613d69565b6000604051808303816000875af1925050508015610d7857506040513d6000823e3d601f19601f82011682018060405250810190610d759190613ee6565b60015b15610d7f57505b8015610e7d576001600081819054906101000a900460070b80929190610da49061371c565b91906101000a81548167ffffffffffffffff021916908360070b67ffffffffffffffff1602179055505060008373ffffffffffffffffffffffffffffffffffffffff16600f604051610df59061377d565b60006040518083038185875af1925050503d8060008114610e32576040519150601f19603f3d011682016040523d82523d6000602084013e610e37565b606091505b5050905080610e7b576040517f08c379a0000000000000000000000000000000000000000000000000000000008152600401610e7290613804565b60405180910390fd5b505b50505050565b600061080173ffffffffffffffffffffffffffffffffffffffff168383604051602401610eb1929190613f2f565b6040516020818303038152906040527f5a9d9a96000000000000000000000000000000000000000000000000000000007bffffffffffffffffffffffffffffffffffffffffffffffffffffffff19166020820180517bffffffffffffffffffffffffffffffffffffffffffffffffffffffff8381831617835250505050604051610f3b91906139c4565b600060405180830381855af49150503d8060008114610f76576040519150601f19603f3d011682016040523d82523d6000602084013e610f7b565b606091505b5050905080610fbf576040517f08c379a0000000000000000000000000000000000000000000000000000000008152600401610fb690613fd1565b60405180910390fd5b505050565b606061080173ffffffffffffffffffffffffffffffffffffffff1663b46a8d6130846040518363ffffffff1660e01b8152600401611003929190613f2f565b6000604051808303816000875af1158015611022573d6000803e3d6000fd5b505050506040513d6000823e3d601f19601f8201168201806040525081019061104b9190613ee6565b9050919050565b600061080173ffffffffffffffffffffffffffffffffffffffff16635a9d9a9684846040518363ffffffff1660e01b8152600401611091929190613f2f565b6020604051808303816000875af11580156110b0573d6000803e3d6000fd5b505050506040513d601f19601f820116820180604052508101906110d491906138d0565b905092915050565b60608215611210576001600081819054906101000a900460070b809291906111039061371c565b91906101000a81548167ffffffffffffffff021916908360070b67ffffffffffffffff160217905550503073ffffffffffffffffffffffffffffffffffffffff168473ffffffffffffffffffffffffffffffffffffffff161461120f5760008473ffffffffffffffffffffffffffffffffffffffff16600f6040516111879061377d565b60006040518083038185875af1925050503d80600081146111c4576040519150601f19603f3d011682016040523d82523d6000602084013e6111c9565b606091505b505090508061120d576040517f08c379a000000000000000000000000000000000000000000000000000000000815260040161120490613804565b60405180910390fd5b505b5b61080173ffffffffffffffffffffffffffffffffffffffff16633ce4e3be866040518263ffffffff1660e01b815260040161124b9190613532565b6000604051808303816000875af115801561126a573d6000803e3d6000fd5b505050506040513d6000823e3d601f19601f820116820180604052508101906112939190613ee6565b905081156113c7576001600081819054906101000a900460070b809291906112ba9061371c565b91906101000a81548167ffffffffffffffff021916908360070b67ffffffffffffffff160217905550503073ffffffffffffffffffffffffffffffffffffffff168473ffffffffffffffffffffffffffffffffffffffff16146113c65760008473ffffffffffffffffffffffffffffffffffffffff16600f60405161133e9061377d565b60006040518083038185875af1925050503d806000811461137b576040519150601f19603f3d011682016040523d82523d6000602084013e611380565b606091505b50509050806113c4576040517f08c379a00000000000000000000000000000000000000000000000000000000081526004016113bb90613804565b60405180910390fd5b505b5b949350505050565b600160009054906101000a900460070b81565b81156114e0576001600081819054906101000a900460070b809291906114079061371c565b91906101000a81548167ffffffffffffffff021916908360070b67ffffffffffffffff1602179055505060008473ffffffffffffffffffffffffffffffffffffffff16600f6040516114589061377d565b60006040518083038185875af1925050503d8060008114611495576040519150601f19603f3d011682016040523d82523d6000602084013e61149a565b606091505b50509050806114de576040517f08c379a00000000000000000000000000000000000000000000000000000000081526004016114d590613804565b60405180910390fd5b505b600061080173ffffffffffffffffffffffffffffffffffffffff1663ed41d0b686866040518363ffffffff1660e01b815260040161151f929190614000565b6020604051808303816000875af115801561153e573d6000803e3d6000fd5b505050506040513d601f19601f8201168201806040525081019061156291906138d0565b90508061156e57600080fd5b811561166c576001600081819054906101000a900460070b809291906115939061371c565b91906101000a81548167ffffffffffffffff021916908360070b67ffffffffffffffff1602179055505060008573ffffffffffffffffffffffffffffffffffffffff16600f6040516115e49061377d565b60006040518083038185875af1925050503d8060008114611621576040519150601f19603f3d011682016040523d82523d6000602084013e611626565b606091505b505090508061166a576040517f08c379a000000000000000000000000000000000000000000000000000000000815260040161166190613804565b60405180910390fd5b505b5050505050565b600061080173ffffffffffffffffffffffffffffffffffffffff16632efe8a5f84846040518363ffffffff1660e01b81526004016116b2929190614029565b6020604051808303816000875af11580156116d1573d6000803e3d6000fd5b505050506040513d601f19601f820116820180604052508101906116f591906138d0565b905092915050565b606061080173ffffffffffffffffffffffffffffffffffffffff16639ad563b484846040518363ffffffff1660e01b815260040161173c929190613f2f565b600060405180830381865afa158015611759573d6000803e3d6000fd5b505050506040513d6000823e3d601f19601f820116820180604052508101906117829190614052565b905092915050565b600061080173ffffffffffffffffffffffffffffffffffffffff1683836040516024016117b8929190613f2f565b6040516020818303038152906040527f5a9d9a96000000000000000000000000000000000000000000000000000000007bffffffffffffffffffffffffffffffffffffffffffffffffffffffff19166020820180517bffffffffffffffffffffffffffffffffffffffffffffffffffffffff838183161783525050505060405161184291906139c4565b600060405180830381855afa9150503d806000811461187d576040519150601f19603f3d011682016040523d82523d6000602084013e611882565b606091505b50509050806118c6576040517f08c379a00000000000000000000000000000000000000000000000000000000081526004016118bd90613a27565b60405180910390fd5b505050565b606061080173ffffffffffffffffffffffffffffffffffffffff16633dd40f78836040518263ffffffff1660e01b81526004016119089190613532565b600060405180830381865afa158015611925573d6000803e3d6000fd5b505050506040513d6000823e3d601f19601f8201168201806040525081019061194e9190614052565b9050919050565b606061195f612552565b61080173ffffffffffffffffffffffffffffffffffffffff16638f2473ce878787876040518563ffffffff1660e01b81526004016119a09493929190614226565b600060405180830381865afa1580156119bd573d6000803e3d6000fd5b505050506040513d6000823e3d601f19601f820116820180604052508101906119e691906144fe565b9150915094509492505050565b60008061080173ffffffffffffffffffffffffffffffffffffffff16632efe8a5f85856040518363ffffffff1660e01b8152600401611a33929190614029565b6020604051808303816000875af1925050508015611a6f57506040513d601f19601f82011682018060405250810190611a6c91906138d0565b60015b611a7c5760009050611a81565b809150505b8091505092915050565b600061080173ffffffffffffffffffffffffffffffffffffffff16635a9d9a9630846040518363ffffffff1660e01b8152600401611aca929190613f2f565b6020604051808303816000875af1158015611ae9573d6000803e3d6000fd5b505050506040513d601f19601f82011682018060405250810190611b0d91906138d0565b9050919050565b606061080173ffffffffffffffffffffffffffffffffffffffff1663b46a8d6184846040518363ffffffff1660e01b8152600401611b53929190613f2f565b6000604051808303816000875af1158015611b72573d6000803e3d6000fd5b505050506040513d6000823e3d601f19601f82011682018060405250810190611b9b9190613ee6565b905092915050565b606061080173ffffffffffffffffffffffffffffffffffffffff1663b46a8d6184846040518363ffffffff1660e01b8152600401611be2929190613f2f565b6000604051808303816000875af1158015611c01573d6000803e3d6000fd5b505050506040513d6000823e3d601f19601f82011682018060405250810190611c2a9190613ee6565b600080fd5b60608215611d2f576001600081819054906101000a900460070b80929190611c569061371c565b91906101000a81548167ffffffffffffffff021916908360070b67ffffffffffffffff1602179055505060008573ffffffffffffffffffffffffffffffffffffffff16600f604051611ca79061377d565b60006040518083038185875af1925050503d8060008114611ce4576040519150601f19603f3d011682016040523d82523d6000602084013e611ce9565b606091505b5050905080611d2d576040517f08c379a0000000000000000000000000000000000000000000000000000000008152600401611d2490613804565b60405180910390fd5b505b61080173ffffffffffffffffffffffffffffffffffffffff1663b46a8d6186866040518363ffffffff1660e01b8152600401611d6c929190613d69565b6000604051808303816000875af1158015611d8b573d6000803e3d6000fd5b505050506040513d6000823e3d601f19601f82011682018060405250810190611db49190613ee6565b90508115611eb4576001600081819054906101000a900460070b80929190611ddb9061371c565b91906101000a81548167ffffffffffffffff021916908360070b67ffffffffffffffff1602179055505060008573ffffffffffffffffffffffffffffffffffffffff16600f604051611e2c9061377d565b60006040518083038185875af1925050503d8060008114611e69576040519150601f19603f3d011682016040523d82523d6000602084013e611e6e565b606091505b5050905080611eb2576040517f08c379a0000000000000000000000000000000000000000000000000000000008152600401611ea990613804565b60405180910390fd5b505b949350505050565b6060600061080173ffffffffffffffffffffffffffffffffffffffff16635a9d9a9633876040518363ffffffff1660e01b8152600401611efd929190613f2f565b6020604051808303816000875af1158015611f1c573d6000803e3d6000fd5b505050506040513d601f19601f82011682018060405250810190611f4091906138d0565b905080611f82576040517f08c379a0000000000000000000000000000000000000000000000000000000008152600401611f79906145c2565b60405180910390fd5b61080173ffffffffffffffffffffffffffffffffffffffff1663b46a8d6185856040518363ffffffff1660e01b8152600401611fbf929190613f2f565b6000604051808303816000875af1158015611fde573d6000803e3d6000fd5b505050506040513d6000823e3d601f19601f820116820180604052508101906120079190613ee6565b9150509392505050565b606061080173ffffffffffffffffffffffffffffffffffffffff1663a66cb605836040518263ffffffff1660e01b815260040161204e9190613978565b600060405180830381865afa15801561206b573d6000803e3d6000fd5b505050506040513d6000823e3d601f19601f8201168201806040525081019061209491906146c3565b9050919050565b600060018060008282829054906101000a900460070b6120bb919061470c565b92506101000a81548167ffffffffffffffff021916908360070b67ffffffffffffffff16021790555061080173ffffffffffffffffffffffffffffffffffffffff1663ed41d0b684846040518363ffffffff1660e01b815260040161212192919061476c565b6020604051808303816000875af1158015612140573d6000803e3d6000fd5b505050506040513d601f19601f8201168201806040525081019061216491906138d0565b905060018060008282829054906101000a900460070b6121849190614795565b92506101000a81548167ffffffffffffffff021916908360070b67ffffffffffffffff16021790555092915050565b606061080173ffffffffffffffffffffffffffffffffffffffff16635431f450836040518263ffffffff1660e01b81526004016121f09190613978565b600060405180830381865afa15801561220d573d6000803e3d6000fd5b505050506040513d6000823e3d601f19601f8201168201806040525081019061223691906147f5565b9050919050565b565b606061080173ffffffffffffffffffffffffffffffffffffffff166385b2d2da836040518263ffffffff1660e01b815260040161227c9190613532565b600060405180830381865afa158015612299573d6000803e3d6000fd5b505050506040513d6000823e3d601f19601f820116820180604052508101906122c29190614052565b9050919050565b600061080073ffffffffffffffffffffffffffffffffffffffff1663b6039895308460006040518463ffffffff1660e01b815260040161230b939291906149ec565b6020604051808303816000875af115801561232a573d6000803e3d6000fd5b505050506040513d601f19601f8201168201806040525081019061234e91906138d0565b905080612390576040517f08c379a000000000000000000000000000000000000000000000000000000000815260040161238790614a9c565b60405180910390fd5b61080073ffffffffffffffffffffffffffffffffffffffff166353266bbb3085856040518463ffffffff1660e01b81526004016123cf93929190614abc565b6020604051808303816000875af11580156123ee573d6000803e3d6000fd5b505050506040513d601f19601f8201168201806040525081019061241291906138d0565b50505050565b606061080173ffffffffffffffffffffffffffffffffffffffff16633ce4e3be836040518263ffffffff1660e01b81526004016124559190613532565b6000604051808303816000875af1158015612474573d6000803e3d6000fd5b505050506040513d6000823e3d601f19601f8201168201806040525081019061249d9190613ee6565b9050919050565b60608061080173ffffffffffffffffffffffffffffffffffffffff166354be1a28846040518263ffffffff1660e01b81526004016124e29190613978565b600060405180830381865afa1580156124ff573d6000803e3d6000fd5b505050506040513d6000823e3d601f19601f820116820180604052508101906125289190614c63565b91509150915091565b60405180606001604052806060815260200160608152602001606081525090565b604051806040016040528060608152602001600067ffffffffffffffff1681525090565b6000604051905090565b600080fd5b600080fd5b600073ffffffffffffffffffffffffffffffffffffffff82169050919050565b60006125b58261258a565b9050919050565b6125c5816125aa565b81146125d057600080fd5b50565b6000813590506125e2816125bc565b92915050565b600063ffffffff82169050919050565b612601816125e8565b811461260c57600080fd5b50565b60008135905061261e816125f8565b92915050565b60008115159050919050565b61263981612624565b811461264457600080fd5b50565b60008135905061265681612630565b92915050565b6000806000806080858703121561267657612675612580565b5b6000612684878288016125d3565b94505060206126958782880161260f565b93505060406126a687828801612647565b92505060606126b787828801612647565b91505092959194509250565b60006126ce8261258a565b9050919050565b6126de816126c3565b81146126e957600080fd5b50565b6000813590506126fb816126d5565b92915050565b60006020828403121561271757612716612580565b5b6000612725848285016126ec565b91505092915050565b600081519050919050565b600082825260208201905092915050565b60005b8381101561276857808201518184015260208101905061274d565b60008484015250505050565b6000601f19601f8301169050919050565b60006127908261272e565b61279a8185612739565b93506127aa81856020860161274a565b6127b381612774565b840191505092915050565b600060208201905081810360008301526127d88184612785565b905092915050565b600080fd5b600080fd5b7f4e487b7100000000000000000000000000000000000000000000000000000000600052604160045260246000fd5b61282282612774565b810181811067ffffffffffffffff82111715612841576128406127ea565b5b80604052505050565b6000612854612576565b90506128608282612819565b919050565b600067ffffffffffffffff8211156128805761287f6127ea565b5b61288982612774565b9050602081019050919050565b82818337600083830152505050565b60006128b86128b384612865565b61284a565b9050828152602081018484840111156128d4576128d36127e5565b5b6128df848285612896565b509392505050565b600082601f8301126128fc576128fb6127e0565b5b813561290c8482602086016128a5565b91505092915050565b60006020828403121561292b5761292a612580565b5b600082013567ffffffffffffffff81111561294957612948612585565b5b612955848285016128e7565b91505092915050565b600081519050919050565b600082825260208201905092915050565b60006129858261295e565b61298f8185612969565b935061299f81856020860161274a565b6129a881612774565b840191505092915050565b600081519050919050565b600082825260208201905092915050565b6000819050602082019050919050565b6000819050919050565b6129f2816129df565b82525050565b600060ff82169050919050565b612a0e816129f8565b82525050565b60006060830160008301518482036000860152612a31828261297a565b9150506020830151612a4660208601826129e9565b506040830151612a596040860182612a05565b508091505092915050565b6000612a708383612a14565b905092915050565b6000602082019050919050565b6000612a90826129b3565b612a9a81856129be565b935083602082028501612aac856129cf565b8060005b85811015612ae85784840389528151612ac98582612a64565b9450612ad483612a78565b925060208a01995050600181019050612ab0565b50829750879550505050505092915050565b60006060830160008301518482036000860152612b17828261297a565b91505060208301518482036020860152612b318282612a85565b91505060408301518482036040860152612b4b8282612a85565b9150508091505092915050565b60006020820190508181036000830152612b728184612afa565b905092915050565b60008060008060808587031215612b9457612b93612580565b5b6000612ba2878288016125d3565b9450506020612bb3878288016125d3565b935050604085013567ffffffffffffffff811115612bd457612bd3612585565b5b612be0878288016128e7565b9250506060612bf187828801612647565b91505092959194509250565b60008060408385031215612c1457612c13612580565b5b6000612c22858286016126ec565b925050602083013567ffffffffffffffff811115612c4357612c42612585565b5b612c4f858286016128e7565b9150509250929050565b600081519050919050565b600082825260208201905092915050565b6000819050602082019050919050565b60006040830160008301518482036000860152612ca2828261297a565b9150506020830151612cb760208601826129e9565b508091505092915050565b6000612cce8383612c85565b905092915050565b6000602082019050919050565b6000612cee82612c59565b612cf88185612c64565b935083602082028501612d0a85612c75565b8060005b85811015612d465784840389528151612d278582612cc2565b9450612d3283612cd6565b925060208a01995050600181019050612d0e565b50829750879550505050505092915050565b60006020820190508181036000830152612d728184612ce3565b905092915050565b612d8381612624565b82525050565b6000602082019050612d9e6000830184612d7a565b92915050565b60008060008060808587031215612dbe57612dbd612580565b5b600085013567ffffffffffffffff811115612ddc57612ddb612585565b5b612de8878288016128e7565b9450506020612df9878288016125d3565b9350506040612e0a87828801612647565b9250506060612e1b87828801612647565b91505092959194509250565b60008160070b9050919050565b612e3d81612e27565b82525050565b6000602082019050612e586000830184612e34565b92915050565b612e67816129df565b8114612e7257600080fd5b50565b600081359050612e8481612e5e565b92915050565b60008060008060808587031215612ea457612ea3612580565b5b6000612eb2878288016125d3565b9450506020612ec387828801612e75565b9350506040612ed487828801612647565b9250506060612ee587828801612647565b91505092959194509250565b60008060408385031215612f0857612f07612580565b5b6000612f16858286016126ec565b9250506020612f278582860161260f565b9150509250929050565b600082825260208201905092915050565b6000612f4d826129b3565b612f578185612f31565b935083602082028501612f69856129cf565b8060005b85811015612fa55784840389528151612f868582612a64565b9450612f9183612a78565b925060208a01995050600181019050612f6d565b50829750879550505050505092915050565b60006020820190508181036000830152612fd18184612f42565b905092915050565b600067ffffffffffffffff82169050919050565b612ff681612fd9565b811461300157600080fd5b50565b60008135905061301381612fed565b92915050565b600080fd5b600060a0828403121561303457613033613019565b5b81905092915050565b6000806000806080858703121561305757613056612580565b5b600085013567ffffffffffffffff81111561307557613074612585565b5b613081878288016128e7565b945050602061309287828801613004565b93505060406130a387828801613004565b925050606085013567ffffffffffffffff8111156130c4576130c3612585565b5b6130d08782880161301e565b91505092959194509250565b600081519050919050565b600082825260208201905092915050565b6000819050602082019050919050565b61311181612fd9565b82525050565b60408201600082015161312d60008501826129e9565b5060208201516131406020850182612a05565b50505050565b60608201600082015161315c6000850182613108565b50602082015161316f6020850182613117565b50505050565b60006131818383613146565b60608301905092915050565b6000602082019050919050565b60006131a5826130dc565b6131af81856130e7565b93506131ba836130f8565b8060005b838110156131eb5781516131d28882613175565b97506131dd8361318d565b9250506001810190506131be565b5085935050505092915050565b600082825260208201905092915050565b60006132148261272e565b61321e81856131f8565b935061322e81856020860161274a565b61323781612774565b840191505092915050565b6000604083016000830151848203600086015261325f8282613209565b91505060208301516132746020860182613108565b508091505092915050565b60006040820190508181036000830152613299818561319a565b905081810360208301526132ad8184613242565b90509392505050565b600080600080608085870312156132d0576132cf612580565b5b60006132de878288016125d3565b945050602085013567ffffffffffffffff8111156132ff576132fe612585565b5b61330b878288016128e7565b935050604061331c87828801612647565b925050606061332d87828801612647565b91505092959194509250565b60008060006060848603121561335257613351612580565b5b600084013567ffffffffffffffff8111156133705761336f612585565b5b61337c868287016128e7565b935050602061338d868287016126ec565b925050604084013567ffffffffffffffff8111156133ae576133ad612585565b5b6133ba868287016128e7565b9150509250925092565b600081519050919050565b600082825260208201905092915050565b6000819050602082019050919050565b60006133fc838361297a565b905092915050565b6000602082019050919050565b600061341c826133c4565b61342681856133cf565b935083602082028501613438856133e0565b8060005b85811015613474578484038952815161345585826133f0565b945061346083613404565b925060208a0199505060018101905061343c565b50829750879550505050505092915050565b600060208201905081810360008301526134a08184613411565b905092915050565b600080604083850312156134bf576134be612580565b5b60006134cd858286016126ec565b92505060206134de85828601612e75565b9150509250929050565b600082825260208201905092915050565b60006135048261295e565b61350e81856134e8565b935061351e81856020860161274a565b61352781612774565b840191505092915050565b6000602082019050818103600083015261354c81846134f9565b905092915050565b6000806040838503121561356b5761356a612580565b5b600083013567ffffffffffffffff81111561358957613588612585565b5b613595858286016128e7565b92505060206135a685828601612e75565b9150509250929050565b600081519050919050565b600082825260208201905092915050565b6000819050602082019050919050565b600060408301600083015184820360008601526135f9828261297a565b915050602083015184820360208601526136138282612a85565b9150508091505092915050565b600061362c83836135dc565b905092915050565b6000602082019050919050565b600061364c826135b0565b61365681856135bb565b935083602082028501613668856135cc565b8060005b858110156136a457848403895281516136858582613620565b945061369083613634565b925060208a0199505060018101905061366c565b50829750879550505050505092915050565b600060408201905081810360008301526136d08185613641565b905081810360208301526136e48184612f42565b90509392505050565b7f4e487b7100000000000000000000000000000000000000000000000000000000600052601160045260246000fd5b600061372782612e27565b9150677fffffffffffffff8203613741576137406136ed565b5b600182019050919050565b600081905092915050565b50565b600061376760008361374c565b915061377282613757565b600082019050919050565b60006137888261375a565b9150819050919050565b7f4661696c656420746f2073656e6420457468657220746f2064656c656761746f60008201527f7200000000000000000000000000000000000000000000000000000000000000602082015250565b60006137ee6021836134e8565b91506137f982613792565b604082019050919050565b6000602082019050818103600083015261381d816137e1565b9050919050565b6000819050919050565b600061384961384461383f8461258a565b613824565b61258a565b9050919050565b600061385b8261382e565b9050919050565b600061386d82613850565b9050919050565b61387d81613862565b82525050565b61388c816125e8565b82525050565b60006040820190506138a76000830185613874565b6138b46020830184613883565b9392505050565b6000815190506138ca81612630565b92915050565b6000602082840312156138e6576138e5612580565b5b60006138f4848285016138bb565b91505092915050565b7f6661696c656420746f20636c61696d2072657761726473000000000000000000600082015250565b60006139336017836134e8565b915061393e826138fd565b602082019050919050565b6000602082019050818103600083015261396281613926565b9050919050565b613972816126c3565b82525050565b600060208201905061398d6000830184613969565b92915050565b600061399e8261272e565b6139a8818561374c565b93506139b881856020860161274a565b80840191505092915050565b60006139d08284613993565b915081905092915050565b7f6661696c65642073746174696343616c6c20746f20707265636f6d70696c6500600082015250565b6000613a11601f836134e8565b9150613a1c826139db565b602082019050919050565b60006020820190508181036000830152613a4081613a04565b9050919050565b600080fd5b600080fd5b6000613a64613a5f84612865565b61284a565b905082815260208101848484011115613a8057613a7f6127e5565b5b613a8b84828561274a565b509392505050565b600082601f830112613aa857613aa76127e0565b5b8151613ab8848260208601613a51565b91505092915050565b600067ffffffffffffffff821115613adc57613adb6127ea565b5b602082029050602081019050919050565b600080fd5b600081519050613b0181612e5e565b92915050565b613b10816129f8565b8114613b1b57600080fd5b50565b600081519050613b2d81613b07565b92915050565b600060608284031215613b4957613b48613a47565b5b613b53606061284a565b9050600082015167ffffffffffffffff811115613b7357613b72613a4c565b5b613b7f84828501613a93565b6000830152506020613b9384828501613af2565b6020830152506040613ba784828501613b1e565b60408301525092915050565b6000613bc6613bc184613ac1565b61284a565b90508083825260208201905060208402830185811115613be957613be8613aed565b5b835b81811015613c3057805167ffffffffffffffff811115613c0e57613c0d6127e0565b5b808601613c1b8982613b33565b85526020850194505050602081019050613beb565b5050509392505050565b600082601f830112613c4f57613c4e6127e0565b5b8151613c5f848260208601613bb3565b91505092915050565b600060608284031215613c7e57613c7d613a47565b5b613c88606061284a565b9050600082015167ffffffffffffffff811115613ca857613ca7613a4c565b5b613cb484828501613a93565b600083015250602082015167ffffffffffffffff811115613cd857613cd7613a4c565b5b613ce484828501613c3a565b602083015250604082015167ffffffffffffffff811115613d0857613d07613a4c565b5b613d1484828501613c3a565b60408301525092915050565b600060208284031215613d3657613d35612580565b5b600082015167ffffffffffffffff811115613d5457613d53612585565b5b613d6084828501613c68565b91505092915050565b6000604082019050613d7e6000830185613874565b8181036020830152613d9081846134f9565b90509392505050565b600067ffffffffffffffff821115613db457613db36127ea565b5b602082029050602081019050919050565b600060408284031215613ddb57613dda613a47565b5b613de5604061284a565b9050600082015167ffffffffffffffff811115613e0557613e04613a4c565b5b613e1184828501613a93565b6000830152506020613e2584828501613af2565b60208301525092915050565b6000613e44613e3f84613d99565b61284a565b90508083825260208201905060208402830185811115613e6757613e66613aed565b5b835b81811015613eae57805167ffffffffffffffff811115613e8c57613e8b6127e0565b5b808601613e998982613dc5565b85526020850194505050602081019050613e69565b5050509392505050565b600082601f830112613ecd57613ecc6127e0565b5b8151613edd848260208601613e31565b91505092915050565b600060208284031215613efc57613efb612580565b5b600082015167ffffffffffffffff811115613f1a57613f19612585565b5b613f2684828501613eb8565b91505092915050565b6000604082019050613f446000830185613969565b8181036020830152613f5681846134f9565b90509392505050565b7f6661696c65642064656c656761746543616c6c20746f20707265636f6d70696c60008201527f6500000000000000000000000000000000000000000000000000000000000000602082015250565b6000613fbb6021836134e8565b9150613fc682613f5f565b604082019050919050565b60006020820190508181036000830152613fea81613fae565b9050919050565b613ffa816129df565b82525050565b60006040820190506140156000830185613874565b6140226020830184613ff1565b9392505050565b600060408201905061403e6000830185613969565b61404b6020830184613883565b9392505050565b60006020828403121561406857614067612580565b5b600082015167ffffffffffffffff81111561408657614085612585565b5b61409284828501613c3a565b91505092915050565b6140a481612fd9565b82525050565b600080fd5b600080fd5b600080fd5b600080833560016020038436030381126140d6576140d56140b4565b5b83810192508235915060208301925067ffffffffffffffff8211156140fe576140fd6140aa565b5b600182023603831315614114576141136140af565b5b509250929050565b600061412883856131f8565b9350614135838584612896565b61413e83612774565b840190509392505050565b60006141586020840184613004565b905092915050565b600061416f6020840184612647565b905092915050565b61418081612624565b82525050565b600060a0830161419960008401846140b9565b85830360008701526141ac83828461411c565b925050506141bd6020840184614149565b6141ca6020860182613108565b506141d86040840184614149565b6141e56040860182613108565b506141f36060840184614160565b6142006060860182614177565b5061420e6080840184614160565b61421b6080860182614177565b508091505092915050565b6000608082019050818103600083015261424081876134f9565b905061424f602083018661409b565b61425c604083018561409b565b818103606083015261426e8184614186565b905095945050505050565b600067ffffffffffffffff821115614294576142936127ea565b5b602082029050602081019050919050565b6000815190506142b481612fed565b92915050565b6000604082840312156142d0576142cf613a47565b5b6142da604061284a565b905060006142ea84828501613af2565b60008301525060206142fe84828501613b1e565b60208301525092915050565b6000606082840312156143205761431f613a47565b5b61432a604061284a565b9050600061433a848285016142a5565b600083015250602061434e848285016142ba565b60208301525092915050565b600061436d61436884614279565b61284a565b905080838252602082019050606084028301858111156143905761438f613aed565b5b835b818110156143b957806143a5888261430a565b845260208401935050606081019050614392565b5050509392505050565b600082601f8301126143d8576143d76127e0565b5b81516143e884826020860161435a565b91505092915050565b600067ffffffffffffffff82111561440c5761440b6127ea565b5b61441582612774565b9050602081019050919050565b6000614435614430846143f1565b61284a565b905082815260208101848484011115614451576144506127e5565b5b61445c84828561274a565b509392505050565b600082601f830112614479576144786127e0565b5b8151614489848260208601614422565b91505092915050565b6000604082840312156144a8576144a7613a47565b5b6144b2604061284a565b9050600082015167ffffffffffffffff8111156144d2576144d1613a4c565b5b6144de84828501614464565b60008301525060206144f2848285016142a5565b60208301525092915050565b6000806040838503121561451557614514612580565b5b600083015167ffffffffffffffff81111561453357614532612585565b5b61453f858286016143c3565b925050602083015167ffffffffffffffff8111156145605761455f612585565b5b61456c85828601614492565b9150509250929050565b7f6661696c656420746f2073657420776974686472617720616464726573730000600082015250565b60006145ac601e836134e8565b91506145b782614576565b602082019050919050565b600060208201905081810360008301526145db8161459f565b9050919050565b600067ffffffffffffffff8211156145fd576145fc6127ea565b5b602082029050602081019050919050565b600061462161461c846145e2565b61284a565b9050808382526020820190506020840283018581111561464457614643613aed565b5b835b8181101561468b57805167ffffffffffffffff811115614669576146686127e0565b5b8086016146768982613a93565b85526020850194505050602081019050614646565b5050509392505050565b600082601f8301126146aa576146a96127e0565b5b81516146ba84826020860161460e565b91505092915050565b6000602082840312156146d9576146d8612580565b5b600082015167ffffffffffffffff8111156146f7576146f6612585565b5b61470384828501614695565b91505092915050565b600061471782612e27565b915061472283612e27565b925082820190507fffffffffffffffffffffffffffffffffffffffffffffffff80000000000000008112677fffffffffffffff82131715614766576147656136ed565b5b92915050565b60006040820190506147816000830185613969565b61478e6020830184613ff1565b9392505050565b60006147a082612e27565b91506147ab83612e27565b92508282039050677fffffffffffffff81137fffffffffffffffffffffffffffffffffffffffffffffffff8000000000000000821217156147ef576147ee6136ed565b5b92915050565b60006020828403121561480b5761480a612580565b5b600082015167ffffffffffffffff81111561482957614828612585565b5b61483584828501613a93565b91505092915050565b600081549050919050565b60008190508160005260206000209050919050565b7f4e487b7100000000000000000000000000000000000000000000000000000000600052602260045260246000fd5b600060028204905060018216806148a557607f821691505b6020821081036148b8576148b761485e565b5b50919050565b60008190508160005260206000209050919050565b600081546148e08161488d565b6148ea8186612969565b94506001821660008114614905576001811461491b5761494e565b60ff19831686528115156020028601935061494e565b614924856148be565b60005b8381101561494657815481890152600182019150602081019050614927565b808801955050505b50505092915050565b600061496383836148d3565b905092915050565b6000600182019050919050565b60006149838261483e565b61498d81856133cf565b93508360208202850161499f85614849565b8060005b858110156149da578484038952816149bb8582614957565b94506149c68361496b565b925060208a019950506001810190506149a3565b50829750879550505050505092915050565b6000606082019050614a016000830186613969565b614a0e6020830185613ff1565b8181036040830152614a208184614978565b9050949350505050565b7f4661696c656420746f20617070726f7665207374616b696e67206d6574686f6460008201527f7300000000000000000000000000000000000000000000000000000000000000602082015250565b6000614a866021836134e8565b9150614a9182614a2a565b604082019050919050565b60006020820190508181036000830152614ab581614a79565b9050919050565b6000606082019050614ad16000830186613969565b8181036020830152614ae381856134f9565b9050614af26040830184613ff1565b949350505050565b600067ffffffffffffffff821115614b1557614b146127ea565b5b602082029050602081019050919050565b600060408284031215614b3c57614b3b613a47565b5b614b46604061284a565b9050600082015167ffffffffffffffff811115614b6657614b65613a4c565b5b614b7284828501613a93565b600083015250602082015167ffffffffffffffff811115614b9657614b95613a4c565b5b614ba284828501613c3a565b60208301525092915050565b6000614bc1614bbc84614afa565b61284a565b90508083825260208201905060208402830185811115614be457614be3613aed565b5b835b81811015614c2b57805167ffffffffffffffff811115614c0957614c086127e0565b5b808601614c168982614b26565b85526020850194505050602081019050614be6565b5050509392505050565b600082601f830112614c4a57614c496127e0565b5b8151614c5a848260208601614bae565b91505092915050565b60008060408385031215614c7a57614c79612580565b5b600083015167ffffffffffffffff811115614c9857614c97612585565b5b614ca485828601614c35565b925050602083015167ffffffffffffffff811115614cc557614cc4612585565b5b614cd185828601613c3a565b915050925092905056fea2646970667358221220093e37f7cae0d64b34220590ae6654339bd30fb5b31c0a117471b0db37fc97f764736f6c634300081400332f636f736d6f732e7374616b696e672e763162657461312e4d736744656c6567617465",
  "linkReferences": {},
  "deployedLinkReferences": {}
}